{
	"data": {
		"bytecode": {
			"linkReferences": {},
			"object": "608060405234801561000f575f5ffd5b5061001e61003160201b60201c565b5f908161002b91906102ab565b5061037a565b60606040518060400160405280600b81526020017f48656c6c6f20576f726c64000000000000000000000000000000000000000000815250905090565b5f81519050919050565b7f4e487b71000000000000000000000000000000000000000000000000000000005f52604160045260245ffd5b7f4e487b71000000000000000000000000000000000000000000000000000000005f52602260045260245ffd5b5f60028204905060018216806100e957607f821691505b6020821081036100fc576100fb6100a5565b5b50919050565b5f819050815f5260205f209050919050565b5f6020601f8301049050919050565b5f82821b905092915050565b5f6008830261015e7fffffffffffffffffffffffffffffffffffffffffffffffffffffffffffffffff82610123565b6101688683610123565b95508019841693508086168417925050509392505050565b5f819050919050565b5f819050919050565b5f6101ac6101a76101a284610180565b610189565b610180565b9050919050565b5f819050919050565b6101c583610192565b6101d96101d1826101b3565b84845461012f565b825550505050565b5f5f905090565b6101f06101e1565b6101fb8184846101bc565b505050565b5b8181101561021e576102135f826101e8565b600181019050610201565b5050565b601f8211156102635761023481610102565b61023d84610114565b8101602085101561024c578190505b61026061025885610114565b830182610200565b50505b505050565b5f82821c905092915050565b5f6102835f1984600802610268565b1980831691505092915050565b5f61029b8383610274565b9150826002028217905092915050565b6102b48261006e565b67ffffffffffffffff8111156102cd576102cc610078565b5b6102d782546100d2565b6102e2828285610222565b5f60209050601f831160018114610313575f8415610301578287015190505b61030b8582610290565b865550610372565b601f19841661032186610102565b5f5b8281101561034857848901518255600182019150602085019450602081019050610323565b868310156103655784890151610361601f891682610274565b8355505b6001600288020188555050505b505050505050565b61087f806103875f395ff3fe608060405234801561000f575f5ffd5b5060043610610055575f3560e01c80632fda332e146100595780635d3a1f9d146100775780638f1f9d9014610093578063b860426e146100b1578063c605f76c146100cf575b5f5ffd5b6100616100ed565b60405161006e9190610261565b60405180910390f35b610091600480360381019061008c91906102e3565b610113565b005b61009b610128565b6040516100a89190610261565b60405180910390f35b6100b9610137565b6040516100c6919061039e565b60405180910390f35b6100d7610174565b6040516100e4919061039e565b60405180910390f35b5f6100f6610203565b15610103575f9050610110565b61010b61022f565b600190505b90565b81815f91826101239291906105fb565b505050565b5f610131610203565b15905090565b60606040518060400160405280600b81526020017f48656c6c6f20576f726c64000000000000000000000000000000000000000000815250905090565b60605f805461018290610422565b80601f01602080910402602001604051908101604052809291908181526020018280546101ae90610422565b80156101f95780601f106101d0576101008083540402835291602001916101f9565b820191905f5260205f20905b8154815290600101906020018083116101dc57829003601f168201915b5050505050905090565b5f61020c610137565b805190602001205f6040516102219190610764565b604051809103902014905090565b610237610137565b5f9081610244919061077a565b50565b5f8115159050919050565b61025b81610247565b82525050565b5f6020820190506102745f830184610252565b92915050565b5f5ffd5b5f5ffd5b5f5ffd5b5f5ffd5b5f5ffd5b5f5f83601f8401126102a3576102a2610282565b5b8235905067ffffffffffffffff8111156102c0576102bf610286565b5b6020830191508360018202830111156102dc576102db61028a565b5b9250929050565b5f5f602083850312156102f9576102f861027a565b5b5f83013567ffffffffffffffff8111156103165761031561027e565b5b6103228582860161028e565b92509250509250929050565b5f81519050919050565b5f82825260208201905092915050565b8281835e5f83830152505050565b5f601f19601f8301169050919050565b5f6103708261032e565b61037a8185610338565b935061038a818560208601610348565b61039381610356565b840191505092915050565b5f6020820190508181035f8301526103b68184610366565b905092915050565b5f82905092915050565b7f4e487b71000000000000000000000000000000000000000000000000000000005f52604160045260245ffd5b7f4e487b71000000000000000000000000000000000000000000000000000000005f52602260045260245ffd5b5f600282049050600182168061043957607f821691505b60208210810361044c5761044b6103f5565b5b50919050565b5f819050815f5260205f209050919050565b5f6020601f8301049050919050565b5f82821b905092915050565b5f600883026104ae7fffffffffffffffffffffffffffffffffffffffffffffffffffffffffffffffff82610473565b6104b88683610473565b95508019841693508086168417925050509392505050565b5f819050919050565b5f819050919050565b5f6104fc6104f76104f2846104d0565b6104d9565b6104d0565b9050919050565b5f819050919050565b610515836104e2565b61052961052182610503565b84845461047f565b825550505050565b5f5f905090565b610540610531565b61054b81848461050c565b505050565b5b8181101561056e576105635f82610538565b600181019050610551565b5050565b601f8211156105b35761058481610452565b61058d84610464565b8101602085101561059c578190505b6105b06105a885610464565b830182610550565b50505b505050565b5f82821c905092915050565b5f6105d35f19846008026105b8565b1980831691505092915050565b5f6105eb83836105c4565b9150826002028217905092915050565b61060583836103be565b67ffffffffffffffff81111561061e5761061d6103c8565b5b6106288254610422565b610633828285610572565b5f601f831160018114610660575f841561064e578287013590505b61065885826105e0565b8655506106bf565b601f19841661066e86610452565b5f5b8281101561069557848901358255600182019150602085019450602081019050610670565b868310156106b257848901356106ae601f8916826105c4565b8355505b6001600288020188555050505b50505050505050565b5f81905092915050565b5f819050815f5260205f209050919050565b5f81546106f081610422565b6106fa81866106c8565b9450600182165f811461071457600181146107295761075b565b60ff198316865281151582028601935061075b565b610732856106d2565b5f5b8381101561075357815481890152600182019150602081019050610734565b838801955050505b50505092915050565b5f61076f82846106e4565b915081905092915050565b6107838261032e565b67ffffffffffffffff81111561079c5761079b6103c8565b5b6107a68254610422565b6107b1828285610572565b5f60209050601f8311600181146107e2575f84156107d0578287015190505b6107da85826105e0565b865550610841565b601f1984166107f086610452565b5f5b82811015610817578489015182556001820191506020850194506020810190506107f2565b868310156108345784890151610830601f8916826105c4565b8355505b6001600288020188555050505b50505050505056fea26469706673582212204f038571033c940f54044c3a75042b918173f2acc52c709e82f263d6633fe76d64736f6c634300081e0033",
			"opcodes": "PUSH1 0x80 PUSH1 0x40 MSTORE CALLVALUE DUP1 ISZERO PUSH2 0xF JUMPI PUSH0 PUSH0 REVERT JUMPDEST POP PUSH2 0x1E PUSH2 0x31 PUSH1 0x20 SHL PUSH1 0x20 SHR JUMP JUMPDEST PUSH0 SWAP1 DUP2 PUSH2 0x2B SWAP2 SWAP1 PUSH2 0x2AB JUMP JUMPDEST POP PUSH2 0x37A JUMP JUMPDEST PUSH1 0x60 PUSH1 0x40 MLOAD DUP1 PUSH1 0x40 ADD PUSH1 0x40 MSTORE DUP1 PUSH1 0xB DUP2 MSTORE PUSH1 0x20 ADD PUSH32 0x48656C6C6F20576F726C64000000000000000000000000000000000000000000 DUP2 MSTORE POP SWAP1 POP SWAP1 JUMP JUMPDEST PUSH0 DUP2 MLOAD SWAP1 POP SWAP2 SWAP1 POP JUMP JUMPDEST PUSH32 0x4E487B7100000000000000000000000000000000000000000000000000000000 PUSH0 MSTORE PUSH1 0x41 PUSH1 0x4 MSTORE PUSH1 0x24 PUSH0 REVERT JUMPDEST PUSH32 0x4E487B7100000000000000000000000000000000000000000000000000000000 PUSH0 MSTORE PUSH1 0x22 PUSH1 0x4 MSTORE PUSH1 0x24 PUSH0 REVERT JUMPDEST PUSH0 PUSH1 0x2 DUP3 DIV SWAP1 POP PUSH1 0x1 DUP3 AND DUP1 PUSH2 0xE9 JUMPI PUSH1 0x7F DUP3 AND SWAP2 POP JUMPDEST PUSH1 0x20 DUP3 LT DUP2 SUB PUSH2 0xFC JUMPI PUSH2 0xFB PUSH2 0xA5 JUMP JUMPDEST JUMPDEST POP SWAP2 SWAP1 POP JUMP JUMPDEST PUSH0 DUP2 SWAP1 POP DUP2 PUSH0 MSTORE PUSH1 0x20 PUSH0 KECCAK256 SWAP1 POP SWAP2 SWAP1 POP JUMP JUMPDEST PUSH0 PUSH1 0x20 PUSH1 0x1F DUP4 ADD DIV SWAP1 POP SWAP2 SWAP1 POP JUMP JUMPDEST PUSH0 DUP3 DUP3 SHL SWAP1 POP SWAP3 SWAP2 POP POP JUMP JUMPDEST PUSH0 PUSH1 0x8 DUP4 MUL PUSH2 0x15E PUSH32 0xFFFFFFFFFFFFFFFFFFFFFFFFFFFFFFFFFFFFFFFFFFFFFFFFFFFFFFFFFFFFFFFF DUP3 PUSH2 0x123 JUMP JUMPDEST PUSH2 0x168 DUP7 DUP4 PUSH2 0x123 JUMP JUMPDEST SWAP6 POP DUP1 NOT DUP5 AND SWAP4 POP DUP1 DUP7 AND DUP5 OR SWAP3 POP POP POP SWAP4 SWAP3 POP POP POP JUMP JUMPDEST PUSH0 DUP2 SWAP1 POP SWAP2 SWAP1 POP JUMP JUMPDEST PUSH0 DUP2 SWAP1 POP SWAP2 SWAP1 POP JUMP JUMPDEST PUSH0 PUSH2 0x1AC PUSH2 0x1A7 PUSH2 0x1A2 DUP5 PUSH2 0x180 JUMP JUMPDEST PUSH2 0x189 JUMP JUMPDEST PUSH2 0x180 JUMP JUMPDEST SWAP1 POP SWAP2 SWAP1 POP JUMP JUMPDEST PUSH0 DUP2 SWAP1 POP SWAP2 SWAP1 POP JUMP JUMPDEST PUSH2 0x1C5 DUP4 PUSH2 0x192 JUMP JUMPDEST PUSH2 0x1D9 PUSH2 0x1D1 DUP3 PUSH2 0x1B3 JUMP JUMPDEST DUP5 DUP5 SLOAD PUSH2 0x12F JUMP JUMPDEST DUP3 SSTORE POP POP POP POP JUMP JUMPDEST PUSH0 PUSH0 SWAP1 POP SWAP1 JUMP JUMPDEST PUSH2 0x1F0 PUSH2 0x1E1 JUMP JUMPDEST PUSH2 0x1FB DUP2 DUP5 DUP5 PUSH2 0x1BC JUMP JUMPDEST POP POP POP JUMP JUMPDEST JUMPDEST DUP2 DUP2 LT ISZERO PUSH2 0x21E JUMPI PUSH2 0x213 PUSH0 DUP3 PUSH2 0x1E8 JUMP JUMPDEST PUSH1 0x1 DUP2 ADD SWAP1 POP PUSH2 0x201 JUMP JUMPDEST POP POP JUMP JUMPDEST PUSH1 0x1F DUP3 GT ISZERO PUSH2 0x263 JUMPI PUSH2 0x234 DUP2 PUSH2 0x102 JUMP JUMPDEST PUSH2 0x23D DUP5 PUSH2 0x114 JUMP JUMPDEST DUP2 ADD PUSH1 0x20 DUP6 LT ISZERO PUSH2 0x24C JUMPI DUP2 SWAP1 POP JUMPDEST PUSH2 0x260 PUSH2 0x258 DUP6 PUSH2 0x114 JUMP JUMPDEST DUP4 ADD DUP3 PUSH2 0x200 JUMP JUMPDEST POP POP JUMPDEST POP POP POP JUMP JUMPDEST PUSH0 DUP3 DUP3 SHR SWAP1 POP SWAP3 SWAP2 POP POP JUMP JUMPDEST PUSH0 PUSH2 0x283 PUSH0 NOT DUP5 PUSH1 0x8 MUL PUSH2 0x268 JUMP JUMPDEST NOT DUP1 DUP4 AND SWAP2 POP POP SWAP3 SWAP2 POP POP JUMP JUMPDEST PUSH0 PUSH2 0x29B DUP4 DUP4 PUSH2 0x274 JUMP JUMPDEST SWAP2 POP DUP3 PUSH1 0x2 MUL DUP3 OR SWAP1 POP SWAP3 SWAP2 POP POP JUMP JUMPDEST PUSH2 0x2B4 DUP3 PUSH2 0x6E JUMP JUMPDEST PUSH8 0xFFFFFFFFFFFFFFFF DUP2 GT ISZERO PUSH2 0x2CD JUMPI PUSH2 0x2CC PUSH2 0x78 JUMP JUMPDEST JUMPDEST PUSH2 0x2D7 DUP3 SLOAD PUSH2 0xD2 JUMP JUMPDEST PUSH2 0x2E2 DUP3 DUP3 DUP6 PUSH2 0x222 JUMP JUMPDEST PUSH0 PUSH1 0x20 SWAP1 POP PUSH1 0x1F DUP4 GT PUSH1 0x1 DUP2 EQ PUSH2 0x313 JUMPI PUSH0 DUP5 ISZERO PUSH2 0x301 JUMPI DUP3 DUP8 ADD MLOAD SWAP1 POP JUMPDEST PUSH2 0x30B DUP6 DUP3 PUSH2 0x290 JUMP JUMPDEST DUP7 SSTORE POP PUSH2 0x372 JUMP JUMPDEST PUSH1 0x1F NOT DUP5 AND PUSH2 0x321 DUP7 PUSH2 0x102 JUMP JUMPDEST PUSH0 JUMPDEST DUP3 DUP2 LT ISZERO PUSH2 0x348 JUMPI DUP5 DUP10 ADD MLOAD DUP3 SSTORE PUSH1 0x1 DUP3 ADD SWAP2 POP PUSH1 0x20 DUP6 ADD SWAP5 POP PUSH1 0x20 DUP2 ADD SWAP1 POP PUSH2 0x323 JUMP JUMPDEST DUP7 DUP4 LT ISZERO PUSH2 0x365 JUMPI DUP5 DUP10 ADD MLOAD PUSH2 0x361 PUSH1 0x1F DUP10 AND DUP3 PUSH2 0x274 JUMP JUMPDEST DUP4 SSTORE POP JUMPDEST PUSH1 0x1 PUSH1 0x2 DUP9 MUL ADD DUP9 SSTORE POP POP POP JUMPDEST POP POP POP POP POP POP JUMP JUMPDEST PUSH2 0x87F DUP1 PUSH2 0x387 PUSH0 CODECOPY PUSH0 RETURN INVALID PUSH1 0x80 PUSH1 0x40 MSTORE CALLVALUE DUP1 ISZERO PUSH2 0xF JUMPI PUSH0 PUSH0 REVERT JUMPDEST POP PUSH1 0x4 CALLDATASIZE LT PUSH2 0x55 JUMPI PUSH0 CALLDATALOAD PUSH1 0xE0 SHR DUP1 PUSH4 0x2FDA332E EQ PUSH2 0x59 JUMPI DUP1 PUSH4 0x5D3A1F9D EQ PUSH2 0x77 JUMPI DUP1 PUSH4 0x8F1F9D90 EQ PUSH2 0x93 JUMPI DUP1 PUSH4 0xB860426E EQ PUSH2 0xB1 JUMPI DUP1 PUSH4 0xC605F76C EQ PUSH2 0xCF JUMPI JUMPDEST PUSH0 PUSH0 REVERT JUMPDEST PUSH2 0x61 PUSH2 0xED JUMP JUMPDEST PUSH1 0x40 MLOAD PUSH2 0x6E SWAP2 SWAP1 PUSH2 0x261 JUMP JUMPDEST PUSH1 0x40 MLOAD DUP1 SWAP2 SUB SWAP1 RETURN JUMPDEST PUSH2 0x91 PUSH1 0x4 DUP1 CALLDATASIZE SUB DUP2 ADD SWAP1 PUSH2 0x8C SWAP2 SWAP1 PUSH2 0x2E3 JUMP JUMPDEST PUSH2 0x113 JUMP JUMPDEST STOP JUMPDEST PUSH2 0x9B PUSH2 0x128 JUMP JUMPDEST PUSH1 0x40 MLOAD PUSH2 0xA8 SWAP2 SWAP1 PUSH2 0x261 JUMP JUMPDEST PUSH1 0x40 MLOAD DUP1 SWAP2 SUB SWAP1 RETURN JUMPDEST PUSH2 0xB9 PUSH2 0x137 JUMP JUMPDEST PUSH1 0x40 MLOAD PUSH2 0xC6 SWAP2 SWAP1 PUSH2 0x39E JUMP JUMPDEST PUSH1 0x40 MLOAD DUP1 SWAP2 SUB SWAP1 RETURN JUMPDEST PUSH2 0xD7 PUSH2 0x174 JUMP JUMPDEST PUSH1 0x40 MLOAD PUSH2 0xE4 SWAP2 SWAP1 PUSH2 0x39E JUMP JUMPDEST PUSH1 0x40 MLOAD DUP1 SWAP2 SUB SWAP1 RETURN JUMPDEST PUSH0 PUSH2 0xF6 PUSH2 0x203 JUMP JUMPDEST ISZERO PUSH2 0x103 JUMPI PUSH0 SWAP1 POP PUSH2 0x110 JUMP JUMPDEST PUSH2 0x10B PUSH2 0x22F JUMP JUMPDEST PUSH1 0x1 SWAP1 POP JUMPDEST SWAP1 JUMP JUMPDEST DUP2 DUP2 PUSH0 SWAP2 DUP3 PUSH2 0x123 SWAP3 SWAP2 SWAP1 PUSH2 0x5FB JUMP JUMPDEST POP POP POP JUMP JUMPDEST PUSH0 PUSH2 0x131 PUSH2 0x203 JUMP JUMPDEST ISZERO SWAP1 POP SWAP1 JUMP JUMPDEST PUSH1 0x60 PUSH1 0x40 MLOAD DUP1 PUSH1 0x40 ADD PUSH1 0x40 MSTORE DUP1 PUSH1 0xB DUP2 MSTORE PUSH1 0x20 ADD PUSH32 0x48656C6C6F20576F726C64000000000000000000000000000000000000000000 DUP2 MSTORE POP SWAP1 POP SWAP1 JUMP JUMPDEST PUSH1 0x60 PUSH0 DUP1 SLOAD PUSH2 0x182 SWAP1 PUSH2 0x422 JUMP JUMPDEST DUP1 PUSH1 0x1F ADD PUSH1 0x20 DUP1 SWAP2 DIV MUL PUSH1 0x20 ADD PUSH1 0x40 MLOAD SWAP1 DUP2 ADD PUSH1 0x40 MSTORE DUP1 SWAP3 SWAP2 SWAP1 DUP2 DUP2 MSTORE PUSH1 0x20 ADD DUP3 DUP1 SLOAD PUSH2 0x1AE SWAP1 PUSH2 0x422 JUMP JUMPDEST DUP1 ISZERO PUSH2 0x1F9 JUMPI DUP1 PUSH1 0x1F LT PUSH2 0x1D0 JUMPI PUSH2 0x100 DUP1 DUP4 SLOAD DIV MUL DUP4 MSTORE SWAP2 PUSH1 0x20 ADD SWAP2 PUSH2 0x1F9 JUMP JUMPDEST DUP3 ADD SWAP2 SWAP1 PUSH0 MSTORE PUSH1 0x20 PUSH0 KECCAK256 SWAP1 JUMPDEST DUP2 SLOAD DUP2 MSTORE SWAP1 PUSH1 0x1 ADD SWAP1 PUSH1 0x20 ADD DUP1 DUP4 GT PUSH2 0x1DC JUMPI DUP3 SWAP1 SUB PUSH1 0x1F AND DUP3 ADD SWAP2 JUMPDEST POP POP POP POP POP SWAP1 POP SWAP1 JUMP JUMPDEST PUSH0 PUSH2 0x20C PUSH2 0x137 JUMP JUMPDEST DUP1 MLOAD SWAP1 PUSH1 0x20 ADD KECCAK256 PUSH0 PUSH1 0x40 MLOAD PUSH2 0x221 SWAP2 SWAP1 PUSH2 0x764 JUMP JUMPDEST PUSH1 0x40 MLOAD DUP1 SWAP2 SUB SWAP1 KECCAK256 EQ SWAP1 POP SWAP1 JUMP JUMPDEST PUSH2 0x237 PUSH2 0x137 JUMP JUMPDEST PUSH0 SWAP1 DUP2 PUSH2 0x244 SWAP2 SWAP1 PUSH2 0x77A JUMP JUMPDEST POP JUMP JUMPDEST PUSH0 DUP2 ISZERO ISZERO SWAP1 POP SWAP2 SWAP1 POP JUMP JUMPDEST PUSH2 0x25B DUP2 PUSH2 0x247 JUMP JUMPDEST DUP3 MSTORE POP POP JUMP JUMPDEST PUSH0 PUSH1 0x20 DUP3 ADD SWAP1 POP PUSH2 0x274 PUSH0 DUP4 ADD DUP5 PUSH2 0x252 JUMP JUMPDEST SWAP3 SWAP2 POP POP JUMP JUMPDEST PUSH0 PUSH0 REVERT JUMPDEST PUSH0 PUSH0 REVERT JUMPDEST PUSH0 PUSH0 REVERT JUMPDEST PUSH0 PUSH0 REVERT JUMPDEST PUSH0 PUSH0 REVERT JUMPDEST PUSH0 PUSH0 DUP4 PUSH1 0x1F DUP5 ADD SLT PUSH2 0x2A3 JUMPI PUSH2 0x2A2 PUSH2 0x282 JUMP JUMPDEST JUMPDEST DUP3 CALLDATALOAD SWAP1 POP PUSH8 0xFFFFFFFFFFFFFFFF DUP2 GT ISZERO PUSH2 0x2C0 JUMPI PUSH2 0x2BF PUSH2 0x286 JUMP JUMPDEST JUMPDEST PUSH1 0x20 DUP4 ADD SWAP2 POP DUP4 PUSH1 0x1 DUP3 MUL DUP4 ADD GT ISZERO PUSH2 0x2DC JUMPI PUSH2 0x2DB PUSH2 0x28A JUMP JUMPDEST JUMPDEST SWAP3 POP SWAP3 SWAP1 POP JUMP JUMPDEST PUSH0 PUSH0 PUSH1 0x20 DUP4 DUP6 SUB SLT ISZERO PUSH2 0x2F9 JUMPI PUSH2 0x2F8 PUSH2 0x27A JUMP JUMPDEST JUMPDEST PUSH0 DUP4 ADD CALLDATALOAD PUSH8 0xFFFFFFFFFFFFFFFF DUP2 GT ISZERO PUSH2 0x316 JUMPI PUSH2 0x315 PUSH2 0x27E JUMP JUMPDEST JUMPDEST PUSH2 0x322 DUP6 DUP3 DUP7 ADD PUSH2 0x28E JUMP JUMPDEST SWAP3 POP SWAP3 POP POP SWAP3 POP SWAP3 SWAP1 POP JUMP JUMPDEST PUSH0 DUP2 MLOAD SWAP1 POP SWAP2 SWAP1 POP JUMP JUMPDEST PUSH0 DUP3 DUP3 MSTORE PUSH1 0x20 DUP3 ADD SWAP1 POP SWAP3 SWAP2 POP POP JUMP JUMPDEST DUP3 DUP2 DUP4 MCOPY PUSH0 DUP4 DUP4 ADD MSTORE POP POP POP JUMP JUMPDEST PUSH0 PUSH1 0x1F NOT PUSH1 0x1F DUP4 ADD AND SWAP1 POP SWAP2 SWAP1 POP JUMP JUMPDEST PUSH0 PUSH2 0x370 DUP3 PUSH2 0x32E JUMP JUMPDEST PUSH2 0x37A DUP2 DUP6 PUSH2 0x338 JUMP JUMPDEST SWAP4 POP PUSH2 0x38A DUP2 DUP6 PUSH1 0x20 DUP7 ADD PUSH2 0x348 JUMP JUMPDEST PUSH2 0x393 DUP2 PUSH2 0x356 JUMP JUMPDEST DUP5 ADD SWAP2 POP POP SWAP3 SWAP2 POP POP JUMP JUMPDEST PUSH0 PUSH1 0x20 DUP3 ADD SWAP1 POP DUP2 DUP2 SUB PUSH0 DUP4 ADD MSTORE PUSH2 0x3B6 DUP2 DUP5 PUSH2 0x366 JUMP JUMPDEST SWAP1 POP SWAP3 SWAP2 POP POP JUMP JUMPDEST PUSH0 DUP3 SWAP1 POP SWAP3 SWAP2 POP POP JUMP JUMPDEST PUSH32 0x4E487B7100000000000000000000000000000000000000000000000000000000 PUSH0 MSTORE PUSH1 0x41 PUSH1 0x4 MSTORE PUSH1 0x24 PUSH0 REVERT JUMPDEST PUSH32 0x4E487B7100000000000000000000000000000000000000000000000000000000 PUSH0 MSTORE PUSH1 0x22 PUSH1 0x4 MSTORE PUSH1 0x24 PUSH0 REVERT JUMPDEST PUSH0 PUSH1 0x2 DUP3 DIV SWAP1 POP PUSH1 0x1 DUP3 AND DUP1 PUSH2 0x439 JUMPI PUSH1 0x7F DUP3 AND SWAP2 POP JUMPDEST PUSH1 0x20 DUP3 LT DUP2 SUB PUSH2 0x44C JUMPI PUSH2 0x44B PUSH2 0x3F5 JUMP JUMPDEST JUMPDEST POP SWAP2 SWAP1 POP JUMP JUMPDEST PUSH0 DUP2 SWAP1 POP DUP2 PUSH0 MSTORE PUSH1 0x20 PUSH0 KECCAK256 SWAP1 POP SWAP2 SWAP1 POP JUMP JUMPDEST PUSH0 PUSH1 0x20 PUSH1 0x1F DUP4 ADD DIV SWAP1 POP SWAP2 SWAP1 POP JUMP JUMPDEST PUSH0 DUP3 DUP3 SHL SWAP1 POP SWAP3 SWAP2 POP POP JUMP JUMPDEST PUSH0 PUSH1 0x8 DUP4 MUL PUSH2 0x4AE PUSH32 0xFFFFFFFFFFFFFFFFFFFFFFFFFFFFFFFFFFFFFFFFFFFFFFFFFFFFFFFFFFFFFFFF DUP3 PUSH2 0x473 JUMP JUMPDEST PUSH2 0x4B8 DUP7 DUP4 PUSH2 0x473 JUMP JUMPDEST SWAP6 POP DUP1 NOT DUP5 AND SWAP4 POP DUP1 DUP7 AND DUP5 OR SWAP3 POP POP POP SWAP4 SWAP3 POP POP POP JUMP JUMPDEST PUSH0 DUP2 SWAP1 POP SWAP2 SWAP1 POP JUMP JUMPDEST PUSH0 DUP2 SWAP1 POP SWAP2 SWAP1 POP JUMP JUMPDEST PUSH0 PUSH2 0x4FC PUSH2 0x4F7 PUSH2 0x4F2 DUP5 PUSH2 0x4D0 JUMP JUMPDEST PUSH2 0x4D9 JUMP JUMPDEST PUSH2 0x4D0 JUMP JUMPDEST SWAP1 POP SWAP2 SWAP1 POP JUMP JUMPDEST PUSH0 DUP2 SWAP1 POP SWAP2 SWAP1 POP JUMP JUMPDEST PUSH2 0x515 DUP4 PUSH2 0x4E2 JUMP JUMPDEST PUSH2 0x529 PUSH2 0x521 DUP3 PUSH2 0x503 JUMP JUMPDEST DUP5 DUP5 SLOAD PUSH2 0x47F JUMP JUMPDEST DUP3 SSTORE POP POP POP POP JUMP JUMPDEST PUSH0 PUSH0 SWAP1 POP SWAP1 JUMP JUMPDEST PUSH2 0x540 PUSH2 0x531 JUMP JUMPDEST PUSH2 0x54B DUP2 DUP5 DUP5 PUSH2 0x50C JUMP JUMPDEST POP POP POP JUMP JUMPDEST JUMPDEST DUP2 DUP2 LT ISZERO PUSH2 0x56E JUMPI PUSH2 0x563 PUSH0 DUP3 PUSH2 0x538 JUMP JUMPDEST PUSH1 0x1 DUP2 ADD SWAP1 POP PUSH2 0x551 JUMP JUMPDEST POP POP JUMP JUMPDEST PUSH1 0x1F DUP3 GT ISZERO PUSH2 0x5B3 JUMPI PUSH2 0x584 DUP2 PUSH2 0x452 JUMP JUMPDEST PUSH2 0x58D DUP5 PUSH2 0x464 JUMP JUMPDEST DUP2 ADD PUSH1 0x20 DUP6 LT ISZERO PUSH2 0x59C JUMPI DUP2 SWAP1 POP JUMPDEST PUSH2 0x5B0 PUSH2 0x5A8 DUP6 PUSH2 0x464 JUMP JUMPDEST DUP4 ADD DUP3 PUSH2 0x550 JUMP JUMPDEST POP POP JUMPDEST POP POP POP JUMP JUMPDEST PUSH0 DUP3 DUP3 SHR SWAP1 POP SWAP3 SWAP2 POP POP JUMP JUMPDEST PUSH0 PUSH2 0x5D3 PUSH0 NOT DUP5 PUSH1 0x8 MUL PUSH2 0x5B8 JUMP JUMPDEST NOT DUP1 DUP4 AND SWAP2 POP POP SWAP3 SWAP2 POP POP JUMP JUMPDEST PUSH0 PUSH2 0x5EB DUP4 DUP4 PUSH2 0x5C4 JUMP JUMPDEST SWAP2 POP DUP3 PUSH1 0x2 MUL DUP3 OR SWAP1 POP SWAP3 SWAP2 POP POP JUMP JUMPDEST PUSH2 0x605 DUP4 DUP4 PUSH2 0x3BE JUMP JUMPDEST PUSH8 0xFFFFFFFFFFFFFFFF DUP2 GT ISZERO PUSH2 0x61E JUMPI PUSH2 0x61D PUSH2 0x3C8 JUMP JUMPDEST JUMPDEST PUSH2 0x628 DUP3 SLOAD PUSH2 0x422 JUMP JUMPDEST PUSH2 0x633 DUP3 DUP3 DUP6 PUSH2 0x572 JUMP JUMPDEST PUSH0 PUSH1 0x1F DUP4 GT PUSH1 0x1 DUP2 EQ PUSH2 0x660 JUMPI PUSH0 DUP5 ISZERO PUSH2 0x64E JUMPI DUP3 DUP8 ADD CALLDATALOAD SWAP1 POP JUMPDEST PUSH2 0x658 DUP6 DUP3 PUSH2 0x5E0 JUMP JUMPDEST DUP7 SSTORE POP PUSH2 0x6BF JUMP JUMPDEST PUSH1 0x1F NOT DUP5 AND PUSH2 0x66E DUP7 PUSH2 0x452 JUMP JUMPDEST PUSH0 JUMPDEST DUP3 DUP2 LT ISZERO PUSH2 0x695 JUMPI DUP5 DUP10 ADD CALLDATALOAD DUP3 SSTORE PUSH1 0x1 DUP3 ADD SWAP2 POP PUSH1 0x20 DUP6 ADD SWAP5 POP PUSH1 0x20 DUP2 ADD SWAP1 POP PUSH2 0x670 JUMP JUMPDEST DUP7 DUP4 LT ISZERO PUSH2 0x6B2 JUMPI DUP5 DUP10 ADD CALLDATALOAD PUSH2 0x6AE PUSH1 0x1F DUP10 AND DUP3 PUSH2 0x5C4 JUMP JUMPDEST DUP4 SSTORE POP JUMPDEST PUSH1 0x1 PUSH1 0x2 DUP9 MUL ADD DUP9 SSTORE POP POP POP JUMPDEST POP POP POP POP POP POP POP JUMP JUMPDEST PUSH0 DUP2 SWAP1 POP SWAP3 SWAP2 POP POP JUMP JUMPDEST PUSH0 DUP2 SWAP1 POP DUP2 PUSH0 MSTORE PUSH1 0x20 PUSH0 KECCAK256 SWAP1 POP SWAP2 SWAP1 POP JUMP JUMPDEST PUSH0 DUP2 SLOAD PUSH2 0x6F0 DUP2 PUSH2 0x422 JUMP JUMPDEST PUSH2 0x6FA DUP2 DUP7 PUSH2 0x6C8 JUMP JUMPDEST SWAP5 POP PUSH1 0x1 DUP3 AND PUSH0 DUP2 EQ PUSH2 0x714 JUMPI PUSH1 0x1 DUP2 EQ PUSH2 0x729 JUMPI PUSH2 0x75B JUMP JUMPDEST PUSH1 0xFF NOT DUP4 AND DUP7 MSTORE DUP2 ISZERO ISZERO DUP3 MUL DUP7 ADD SWAP4 POP PUSH2 0x75B JUMP JUMPDEST PUSH2 0x732 DUP6 PUSH2 0x6D2 JUMP JUMPDEST PUSH0 JUMPDEST DUP4 DUP2 LT ISZERO PUSH2 0x753 JUMPI DUP2 SLOAD DUP2 DUP10 ADD MSTORE PUSH1 0x1 DUP3 ADD SWAP2 POP PUSH1 0x20 DUP2 ADD SWAP1 POP PUSH2 0x734 JUMP JUMPDEST DUP4 DUP9 ADD SWAP6 POP POP POP JUMPDEST POP POP POP SWAP3 SWAP2 POP POP JUMP JUMPDEST PUSH0 PUSH2 0x76F DUP3 DUP5 PUSH2 0x6E4 JUMP JUMPDEST SWAP2 POP DUP2 SWAP1 POP SWAP3 SWAP2 POP POP JUMP JUMPDEST PUSH2 0x783 DUP3 PUSH2 0x32E JUMP JUMPDEST PUSH8 0xFFFFFFFFFFFFFFFF DUP2 GT ISZERO PUSH2 0x79C JUMPI PUSH2 0x79B PUSH2 0x3C8 JUMP JUMPDEST JUMPDEST PUSH2 0x7A6 DUP3 SLOAD PUSH2 0x422 JUMP JUMPDEST PUSH2 0x7B1 DUP3 DUP3 DUP6 PUSH2 0x572 JUMP JUMPDEST PUSH0 PUSH1 0x20 SWAP1 POP PUSH1 0x1F DUP4 GT PUSH1 0x1 DUP2 EQ PUSH2 0x7E2 JUMPI PUSH0 DUP5 ISZERO PUSH2 0x7D0 JUMPI DUP3 DUP8 ADD MLOAD SWAP1 POP JUMPDEST PUSH2 0x7DA DUP6 DUP3 PUSH2 0x5E0 JUMP JUMPDEST DUP7 SSTORE POP PUSH2 0x841 JUMP JUMPDEST PUSH1 0x1F NOT DUP5 AND PUSH2 0x7F0 DUP7 PUSH2 0x452 JUMP JUMPDEST PUSH0 JUMPDEST DUP3 DUP2 LT ISZERO PUSH2 0x817 JUMPI DUP5 DUP10 ADD MLOAD DUP3 SSTORE PUSH1 0x1 DUP3 ADD SWAP2 POP PUSH1 0x20 DUP6 ADD SWAP5 POP PUSH1 0x20 DUP2 ADD SWAP1 POP PUSH2 0x7F2 JUMP JUMPDEST DUP7 DUP4 LT ISZERO PUSH2 0x834 JUMPI DUP5 DUP10 ADD MLOAD PUSH2 0x830 PUSH1 0x1F DUP10 AND DUP3 PUSH2 0x5C4 JUMP JUMPDEST DUP4 SSTORE POP JUMPDEST PUSH1 0x1 PUSH1 0x2 DUP9 MUL ADD DUP9 SSTORE POP POP POP JUMPDEST POP POP POP POP POP POP JUMP INVALID LOG2 PUSH5 0x6970667358 0x22 SLT KECCAK256 0x4F SUB DUP6 PUSH18 0x33C940F54044C3A75042B918173F2ACC52C PUSH17 0x9E82F263D6633FE76D64736F6C63430008 0x1E STOP CALLER "
		},
		"gasEstimates": {
			"creation": {
				"codeDepositCost": "435000",
				"executionCost": "infinite",
				"totalCost": "infinite"
			},
			"external": {
				"helloWorld()": "infinite",
				"initialText()": "infinite",
				"restore()": "infinite",
				"setText(string)": "infinite",
				"textHasChanged()": "infinite"
			},
			"internal": {
				"_isUnchanged()": "infinite",
				"_restore()": "infinite"
			}
		},
		"methodIdentifiers": {
			"helloWorld()": "c605f76c",
			"initialText()": "b860426e",
			"restore()": "2fda332e",
			"setText(string)": "5d3a1f9d",
			"textHasChanged()": "8f1f9d90"
		}
	},
	"abi": [
		{
			"inputs": [],
			"stateMutability": "nonpayable",
			"type": "constructor"
		},
		{
			"inputs": [],
			"name": "helloWorld",
			"outputs": [
				{
					"internalType": "string",
					"name": "",
					"type": "string"
				}
			],
			"stateMutability": "view",
			"type": "function"
		},
		{
			"inputs": [],
			"name": "initialText",
			"outputs": [
				{
					"internalType": "string",
					"name": "",
					"type": "string"
				}
			],
			"stateMutability": "pure",
			"type": "function"
		},
		{
			"inputs": [],
			"name": "restore",
			"outputs": [
				{
					"internalType": "bool",
					"name": "",
					"type": "bool"
				}
			],
			"stateMutability": "nonpayable",
			"type": "function"
		},
		{
			"inputs": [
				{
					"internalType": "string",
					"name": "newText",
					"type": "string"
				}
			],
			"name": "setText",
			"outputs": [],
			"stateMutability": "nonpayable",
			"type": "function"
		},
		{
			"inputs": [],
			"name": "textHasChanged",
			"outputs": [
				{
					"internalType": "bool",
					"name": "returnValue_",
					"type": "bool"
				}
			],
			"stateMutability": "view",
			"type": "function"
		}
	]
}